:020000040800F2
:1000000000000220E9180008D5080008D7080008F9
:10001000D9080008DB080008DD080008000000001F
:10002000000000000000000000000000DF080008E1
:10003000E108000800000000E3080008E5080008E7
:100040003919000839190008391900083919000848
:100050003919000839190008391900083919000838
:100060003919000839190008391900083919000828
:100070003919000839190008391900083919000818
:100080003919000839190008391900080000000062
:100090000000000000000000000000003919000806
:1000A00039190008391900083919000839190008E8
:1000B00039190008391900083919000839190008D8
:1000C00039190008391900083919000839190008C8
:1000D0003919000839190008391900080000000012
:1000E0003919000839190008391900080000000002
:1000F00000000000000000000000000039190008A6
:1001000000000000391900083919000839190008E1
:1001100000000000000000000000000000000000DF
:100120003919000839190008391900083919000867
:100130003919000800000000000000000000000065
:100140000000000000000000000000003919000855
:100150003919000839190008391900083919000837
:1001600039190008391900080000000000000000DB
:10017000000000000000000000000000000000007F
:100180000000000039190008000000000000000015
:080190003919000839190008B3
:1001980010B5054C237833B9044B13B10448AFF3B9
:1001A80000800123237010BD2400002000000000FF
:1001B8009419000808B5034B1BB103490348AFF372
:1001C800008008BD000000002800002094190008E5
:1001D80053B94AB9002908BF00281CBF4FF0FF31A6
:1001E8004FF0FF3000F072B9ADF1080C6DE904CEA4
:1001F80000F006F8DDF804E0DDE9022304B07047FA
:100208002DE9F047089E04468846002B4BD18A42C8
:10021800154667D9B2FA82F24AB1C2F1200701FA4B
:1002280002F320FA07F7954047EA030894404FEA9B
:10023800154E230CB8FBFEF71FFA85FC0EFB17883A
:1002480043EA084307FB0CF1994209D9EB1807F177
:10025800FF3080F01B81994240F21881023F2B4405
:100268005B1AA4B2B3FBFEF00EFB103344EA03445E
:1002780000FB0CFCA44509D92C1900F1FF3380F0D0
:100288000781A44540F2048102382C4440EA074023
:10029800A4EB0C0400271EB1D4400023C6E9004398
:1002A8003946BDE8F0878B4209D9002E00F0EB8073
:1002B8000027C6E9000138463946BDE8F087B3FA99
:1002C80083F7002F47D18B4202D3824200F2FA8093
:1002D800841A61EB030301209846002EE0D0C6E99A
:1002E8000048DDE702B9FFDEB2FA82F2002A40F0E8
:1002F8008F80491B4FEA154E1FFA85F80127B1FB7D
:10030800FEFC230C0EFB1C1143EA014308FB0CF115
:10031800994207D9EB180CF1FF3002D2994200F24A
:10032800CD808446591AA3B2B1FBFEF00EFB10141F
:1003380043EA044408FB00F8A04507D92C1900F14A
:10034800FF3302D2A04500F2B6801846A4EB080499
:1003580040EA0C409FE7C7F1200CBB4022FA0CFE94
:100368004EEA030E01FA07F420FA0CF521FA0CF311
:100378004FEA1E482543B3FBF8F92C0C08FB193348
:100388001FFA8EFA44EA034309FB0AF49C4202FA74
:1003980007F200FA07F10BD91EEB030309F1FF304E
:1003A80080F087809C4240F28480A9F1020973445E
:1003B8001B1BADB2B3FBF8F008FB103345EA03444E
:1003C80000FB0AFAA24508D91EEB040400F1FF332A
:1003D8006BD2A24569D90238744440EA0940A0FBAF
:1003E8000289A4EB0A044C45C2464B4654D351D06B
:1003F800002E69D0B1EB0A0564EB030404FA0CFC87
:10040800FD40FC404CEA0505C6E90054002747E7D3
:10041800C2F1200320FA03F7954001FA02F021FA0D
:1004280003F34FEA154E3843010CB3FBFEF71FFAEE
:1004380085F80EFB173341EA034107FB08F38B42AB
:1004480004FA02F407D9691807F1FF3C2FD28B424E
:100458002DD9023F2944CB1A81B2B3FBFEF00EFB23
:10046800103341EA034100FB08F38B4207D96918AE
:1004780000F1FF3C17D28B4215D902382944C91A1A
:1004880040EA07473BE73746304609E70746E7E6CD
:100498001846FBE64145ABD2B8EB020A69EB0E02FF
:1004A80001381346A4E76046E9E7184695E767462A
:1004B800D1E781467CE702382C4447E7ACF1020CCF
:1004C8002B442FE7384608E73746E9E6704700BF70
:1004D80030B595B03022002108A801F04FFA002469
:1004E8000394049405940694079401941A4B1A6C87
:1004F80042F080521A641B6C03F080530193019BF5
:100508000294164B1A6842F440421A601B6803F4BE
:1005180040430293029B0225089501230B93102365
:100528000C930E950F9410934FF4A8731193042312
:100538001293139308A800F087FC0F2303930495E4
:1005480005944FF4805306930794294603A800F0B6
:10055800B3FE15B030BD00BF003802400070004047
:1005680010B4401A019CE41A04FB00F0521A90FBE4
:10057800F2F018445DF8044B7047000010B582B0E3
:1005880001F0A0F8FFF7A4FF00F090F800F02AF9B6
:1005980000212F4800F0EAFB2E4B00249C624AF20F
:1005A8000F42DA622C4B1B682C4A1268B3FBF2F23A
:1005B8002B490A602B4A1268B3FBF2F32A4A1360EC
:1005C8002A4B1C602A4B1C602A4B1C602A4B1C605F
:1005D8002A4B1C602A4B1C602A4B1C702A4B4FF07C
:1005E8007E521A6001F0C0F8284AD36843F080733D
:1005F800D360274B5C601A6842F001021A60244BF2
:100608005B68244A12689B1A234A9342F7D9204B05
:100618005A68204B1A60214A536983F020035361BA
:100628001F4C236803EBD3735B10A2F58032D362AF
:1006380001F0CAF80A4B1B681A4A12681049086880
:100648000949096800910021FFF78AFF2060D6E771
:10065800C41F002000000140080000200000002006
:10066800440000200400002048000020BC1F002097
:100678005C00002058000020B01F0020AC1F0020A4
:10068800C01F00205000002054000020F0ED00E0C2
:10069800001000E040000020204801000000024057
:1006A800100000200C0000207047000030B58BB00F
:1006B8000024059406940794089409940194224B05
:1006C8001A6B42F004021A631A6B02F004020192D8
:1006D800019A02941A6B42F080021A631A6B02F0B4
:1006E80080020292029A03941A6B42F001021A6382
:1006F8001A6B02F001020392039A04941A6B42F0F7
:1007080002021A631B6B03F002030493049B0F4D50
:1007180022462021284600F04DFF4FF40053059350
:100728000B4B0693079405A90A4800F071FE202395
:100738000593012306930794089405A9284600F019
:1007480067FE0BB030BD00BF003802400000024019
:1007580000002110000802400268094B9A4200D0AC
:10076800704782B000230193064B5A6C42F0010295
:100778005A645B6C03F001030193019B02B070475C
:10078800000001400038024000B587B00023019303
:10079800029303930493059302680F4B9A4202D085
:1007A80007B05DF804FB002300930C4B1A6B42F072
:1007B80001021A631B6B03F001030093009B4FF4C3
:1007C80080730193022302930123059301A904482E
:1007D80000F01EFEE4E700BF0000014000380240C0
:1007E8000000024000B595B00023109311931293B6
:1007F80013930E930F930793089309930A930B93FC
:100808000C930D9300930193029303930493059320
:1008180006932C482C4A026043608360C3600361DE
:10082800436100F005FA002839D114A94FF4805328
:1008380041F8103D234800F02DF9002832D1214815
:1008480000F00FFA002830D100230E930F930EA961
:100858001C4800F0A3FA58BB3023079300220892E3
:1008680009920A920B920C920D9207A9154800F072
:100878003FFA00BB00230093019302930393049370
:100888004FF400520592069369460E4800F0AFFAFD
:10089800A0B90C48FFF778FF15B05DF804FBFFF727
:1008A80003FFC2E7FFF700FFC9E7FFF7FDFECBE74D
:1008B800FFF7FAFED0E7FFF7F7FEDBE7FFF7F4FEF6
:1008C800E7E700BFC41F0020000001407047FEE7B3
:1008D800FEE7FEE7FEE770477047704708B500F08F
:1008E8000BFF08BD00B583B0002100910C4B5A6C7A
:1008F80042F480425A645A6C02F480420092009A90
:1009080001911A6C42F080521A641B6C03F08053F8
:100918000193019B072000F053FE03B05DF804FB30
:100928000038024070B4036A23F001030362036ACB
:100938004268846924F073040D6845EA040623F0CC
:1009480002048B6823430B4DA84206D0426086619F
:100958004A684263036270BC704723F00803CC689E
:10096800234323F0040322F440724C6914438A6938
:100978002243EBE70000014030B4036A23F480739C
:100988000362036A4268C46924F073040D682C4347
:1009980023F400738D6843EA05230D4DA84206D061
:1009A8004260C4614A68C263036230BC704723F482
:1009B8000063CD6843EA052323F4806322F44052A0
:1009C8004D6942EA05128D6942EA0512E8E700BF5F
:1009D8000000014030B4036A23F480530362036AC1
:1009E8004468C26922F4E6420D6842EA052223F40B
:1009F80000538D6843EA0533074DA84206D044608A
:100A0800C2614A680264036230BC704724F48044BF
:100A18004D6944EA8514F2E70000014010B4036A06
:100A2800046A24F001040462846924F0F00444EAAE
:100A3800021223F00A030B43826103625DF8044B40
:100A4800704710B4036A23F0100303628469036AD1
:100A580024F4704444EA023223F0A00343EA011369
:100A6800826103625DF8044B7047836823F070036A
:100A780041F0070119438160704710B4846824F479
:100A88007F4442EA03230B43234383605DF8044B0E
:100A98007047704790F83830012B7DD010B5044668
:100AA800012380F83830022380F8393002689368CF
:100AB80023F47F4323F0770393600B68402B57D0D0
:100AC80010D9702B3ED01FD8502B47D0602B32D175
:100AD800CA6849680068FFF7B4FF60212068FFF71B
:100AE800C4FF28E0102B4DD008D9202B4FD0302B35
:100AF80021D130210068FFF7B8FF1CE0DBB90021E5
:100B08000068FFF7B2FF16E0B3F5805F0ED0B3F5CB
:100B1800005F10D1CB684A6889680068FFF7ADFFAD
:100B28002268936843F48043936004E00268936802
:100B380023F007039360012384F83930002084F8F8
:100B4800380010BDCB684A6889680068FFF795FFD0
:100B58002268936843F077039360ECE7CA684968B2
:100B68000068FFF75BFF50212068FFF77EFFE2E790
:100B7800CA6849680068FFF751FF40212068FFF7FD
:100B880074FFD8E710210068FFF76FFFD3E7202133
:100B98000068FFF76AFFCEE7022070470368234A20
:100BA80090420ED0B0F1804F0BD0A2F57C4290421B
:100BB80007D002F58062904203D002F5806290422D
:100BC80003D123F070034A681343184A90421AD09D
:100BD800B0F1804F17D0A2F57C42904213D002F5B5
:100BE800806290420FD002F5806290420BD002F5ED
:100BF8009A32904207D002F58062904203D002F503
:100C08008062904203D123F44073CA68134303609F
:100C18008B68C3620B688362044B984202D001233D
:100C2800436170470B690363F9E700BF00000140A7
:100C3800A8B110B5044690F839305BB1022384F8A6
:100C48003930211D2068FFF7A9FF012384F83930C6
:100C5800002010BD80F83830FFF77EFDEEE7012058
:100C68007047A8B110B5044690F839305BB102233B
:100C780084F83930211D2068FFF790FF012384F89C
:100C88003930002010BD80F83830FFF702FFEEE75A
:100C98000120704730B4036A23F010030362036A2B
:100CA8004468826922F4E6420D6842EA052223F08C
:100CB80020038D6843EA05130C4DA84206D0446012
:100CC80082614A688263036230BC704723F0800304
:100CD800CD6843EA051323F0400324F440644D69CA
:100CE80044EA85048D6944EA8504E8E70000014088
:100CF80090F83830012B28D010B50446012380F82D
:100D08003830022380F839300C2A0BD8DFE802F09B
:100D1800070A0A0A110A0A0A150A0A0A19000068C3
:100D2800FFF700FE012384F83930002084F83800EA
:100D380010BD0068FFF7AEFFF4E70068FFF71CFE80
:100D4800F0E70068FFF746FEECE70220704710B4B2
:100D5800012303FA01F4036A23EA04030362036A22
:100D68008A40134303625DF8044B704710B504468C
:100D780001220068FFF7EBFF2368074A934206D079
:100D88002268136843F001031360002010BD5A6CF9
:100D980042F400425A64F3E70000014090F838300A
:100DA800012B22D030B4012280F83820022380F8A9
:100DB80039300468636823F070036360046863680B
:100DC8000D682B4363600468A36823F08003A36065
:100DD8000468A36849680B43A36080F8392000239E
:100DE80080F83830184630BC70470220704790F8B9
:100DF8003830012B25D0012380F83830CB6823F414
:100E080040738A68134323F480634A68134323F4C6
:100E180000630A68134323F480530A69134323F4D5
:100E280000534A69134323F480438A69134323F424
:100E38000043134302685364002380F8383018468F
:100E48007047022070470000002800F0BB8170B591
:100E580082B00446036813F0010F3BD0A74B9B6890
:100E680003F00C03042B2CD0A44B9B6803F00C0359
:100E7800082B21D06368B3F5803F4FD0B3F5A02F7E
:100E880052D09E4B1A6822F480321A601A6822F4F3
:100E980080221A606368002B50D000F039FC0546A8
:100EA800964B1B6813F4003F14D100F031FC401B33
:100EB8006428F5D903208AE1904B5B6813F4800F0E
:100EC800D8D08E4B1B6813F4003F03D06368002B07
:100ED80000F07A81236813F0020F55D0874B9B6886
:100EE80013F00C0F3ED0854B9B6803F00C03082BC6
:100EF80033D0E368002B68D0814B01221A6000F0E0
:100F080007FC05467D4B1B6813F0020F54D100F017
:100F1800FFFB401B0228F5D9032058E1774A1368E4
:100F280043F480331360B5E7744B1A6842F48022A7
:100F38001A601A6842F480321A60ABE700F0E8FBE6
:100F480005466E4B1B6813F4003FC3D000F0E0FB6E
:100F5800401B6428F5D9032039E1684B5B6813F41A
:100F6800800FC6D1654B1B6813F0020F04D0E368ED
:100F7800012B01D001202AE1604A136823F0F8030D
:100F8800216943EAC1031360236813F0080F40D0B6
:100F9800636963B35B4B01221A6000F0B9FB054635
:100FA800564B5B6F13F0020F33D100F0B1FB401BBF
:100FB8000228F5D903200AE1504A136823F0F80300
:100FC800216943EAC1031360DEE74D4B00221A6032
:100FD80000F09EFB0546494B1B6813F0020FD3D067
:100FE80000F096FB401B0228F5D90320EFE0454BA3
:100FF80000221A6000F08CFB0546404B5B6F13F033
:10100800020F06D000F084FB401B0228F5D903200C
:10101800DDE0236813F0040F79D0384B1B6C13F014
:10102800805F33D100230193344B1A6C42F0805215
:101038001A641B6C03F080530193019B0125324B0A
:101048001B6813F4807F23D0A368012B34D0052BB1
:1010580038D02A4B1A6F22F001021A671A6F22F051
:1010680004021A67A368002B36D000F051FB06462D
:10107800224B1B6F13F0020F48D100F049FB801B75
:1010880041F288339842F3D90320A0E00025D6E73F
:101098001D4A136843F48073136000F039FB064659
:1010A800194B1B6813F4807FCED100F031FB801BF5
:1010B8000228F5D903208AE0104A136F43F0010390
:1010C8001367CFE70D4B1A6F42F004021A671A6FC5
:1010D80042F001021A67C5E700F01AFB0646074B03
:1010E8001B6F13F0020F11D000F012FB801B41F2AE
:1010F80088339842F3D9032069E000BF00380240E2
:1011080000004742800E474200700040E5B9A369DD
:10111800002B5BD0304A926802F00C02082A58D0A3
:10112800022B17D02D4B00221A6000F0F1FA04466A
:10113800294B1B6813F0007F42D000F0E9FA001B2E
:101148000228F5D9032042E0234A136C23F0805388
:101158001364DCE7214B00221A6000F0D9FA054637
:101168001D4B1B6813F0007F06D000F0D1FA401B1E
:101178000228F5D903202AE0E369226A1343626A48
:1011880043EA8213A26A5208013A43EA0243E26A36
:1011980043EA0263104A5360104B01221A6000F0C0
:1011A800B7FA04460C4B1B6813F0007F06D100F019
:1011B800AFFA001B0228F5D9032008E0002006E05A
:1011C800002004E001207047012000E0002002B068
:1011D80070BD0120FBE700BF0038024060004742B5
:1011E800324B9B6803F00C03042B5CD0082B01D016
:1011F8002F4870472DE9F04B2C4B5A6802F03F02FC
:101208005B6813F4800F2BD0284B5B68C3F38813FB
:101218001E4600275C010025E41A65EB0705A901B5
:1012280041EA9461A001001B61EB0501CB0043EA90
:101238005073C400A01943EB07014B0243EAD05393
:101248004402204619460023FEF7C2FF174B5B688D
:10125800C3F3014301335B00B0FBF3F0BDE8F08B4F
:10126800124B5B68C3F388131E4600275C010025F8
:10127800E41A65EB0705A90141EA9461A001001B86
:1012880061EB0501CB0043EA5073C400A01943EB9E
:1012980007018B0243EA9053840220461946002333
:1012A800FEF796FFD2E70348704700BF00380240B8
:1012B8000024F40000127A00002800F09D8070B528
:1012C80004464F4B1B6803F00F038B4209D2CBB285
:1012D8004B4A1370136803F00F038B4201D00120AF
:1012E80070BD236813F0020F17D013F0040F04D059
:1012F800444A936843F4E0539360236813F0080F5B
:1013080004D0404A936843F4604393603D4A93682D
:1013180023F0F003A068034393600D46236813F09D
:10132800010F32D06368012B21D09A1E012A25D9DA
:10133800344A126812F0020F60D032498A6822F0EB
:10134800030213438B6000F0E3F906462D4B9B68BC
:1013580003F00C036268B3EB820F16D000F0D8F9E3
:10136800801B41F288339842F0D90320B8E7254A18
:10137800126812F4003FE0D10120B1E7214A126857
:1013880012F0007FD9D10120AAE71D4B1B6803F09A
:101398000F03AB4209D9EAB2194B1A701B6803F064
:1013A8000F03AB4201D001209AE7236813F0040F22
:1013B80006D0144A936823F4E053E1680B43936022
:1013C800236813F0080F07D00E4A936823F460438C
:1013D800216943EAC1039360FFF702FF094B9B6849
:1013E800C3F30313084AD35CD840084B18600020A5
:1013F80000F042F9002073E70120704701206FE7F1
:10140800003C024000380240AC19000820000020CF
:1014180000230F2B00F2C580F0B482B039E004221B
:1014280000E00022B2403A4302345E4E46F82420DF
:101438005D4A1468EA4302EA04064F6817F4803FDD
:1014480001D045EA0406584C2660646802EA04069E
:101458004F6817F4003F01D045EA0406524C666015
:10146800A46802EA04064F6817F4801F01D045EA11
:1014780004064D4CA660E46822404E6816F4001F2E
:1014880001D045EA0402484CE26001330F2B00F218
:10149800858001229A400C6804EA0205AA42F4D128
:1014A8004C68022C01D0122C10D1DE08083650F8F6
:1014B80026C003F00704A7000F24BC402CEA040C44
:1014C8000C69BC4044EA0C0440F8264004685F00FC
:1014D8000326BE40F64306EA040C4C6804F00304F5
:1014E800BC4044EA0C0404604C6804F1FF3CBCF1C5
:1014F800010F03D9112C01D0122C10D1846806EAEF
:10150800040CCC68BC4044EA0C048460446824EAB7
:1015180002024C68C4F300149C4014434460C2683F
:1015280016408A68BA403243C2604A6812F0805F47
:10153800ABD0002201921D4A546C44F48044546498
:10154800526C02F480420192019A9C08A61C154A2A
:1015580052F8267003F0030296000F22B24027EAE1
:101568000207134A90423FF45CAF02F58062904252
:101578000ED002F5806290420CD002F58062904253
:101588000AD002F5806290423FF449AF072249E74A
:10159800012247E7022245E7032243E702B0F0BCF5
:1015A8007047704700380140003C01400038024055
:1015B8000000024012B909048161704781617047D7
:1015C800074AD36823F4E0631B041B0C000200F4F1
:1015D800E060184340F0BF6040F40030D0607047CE
:1015E80000ED00E030B4174BDB68C3F30223C3F10E
:1015F8000704042C28BF04241D1D062D18D9033BFD
:101608004FF0FF3505FA04F421EA0401994005FA80
:1016180003F322EA0303194300280BDB0901C9B2CB
:1016280000F1604000F5614080F8001330BC70475D
:101638000023E5E700F00F000901C9B2024B195475
:10164800F4E700BF00ED00E014ED00E00138B0F170
:10165800807F0AD2064B5860064AF02182F8231090
:101668000020986007221A6070470120704700BF69
:1016780010E000E000ED00E010B504460E4B1878CD
:101688004FF47A73B3FBF0F30C4A1068B0FBF3F035
:10169800FFF7DCFF68B90F2C01D901200AE000220E
:1016A80021464FF0FF30FFF79DFF054B1C600020DF
:1016B80000E0012010BD00BF18000020200000201D
:1016C8001C00002008B50B4B1A6842F400721A601F
:1016D8001A6842F480621A601A6842F480721A60CA
:1016E8000320FFF76DFF0020FFF7C6FFFFF7FAF8AA
:1016F800002008BD003C0240034A1168034B1B78D8
:101708000B441360704700BF002000201800002021
:10171800014B1868704700BF002000200F49D1F81E
:10172800883043F47003C1F888300D4B1A6842F0D2
:1017380001021A60002098601A6822F0847222F46C
:1017480080321A60074A5A601A6822F480221A60A6
:10175800D8604FF000638B60704700BF00ED00E079
:101768000038024010300024104B93ED007AB8EE98
:10177800477A0F4BD3ED006AC7EE267AFCEEE77A7C
:1017880017EE903A0B4AC2ED007A0B4A1268934260
:1017980002D2094A002111605908084A11609908C3
:1017A800074A1160DB08074A1360704714000020DD
:1017B80054000020AC1F0020B01F0020BC1F0020D8
:1017C8005C000020580000203E4B1B78042B48D8B2
:1017D800DFE803F003473B5B69003B4B1B683B4A70
:1017E800126893420DD23A4A116801FB03F3394A51
:1017F80012685208B3FBF2F303EB5103364A136045
:101808002FE0364909680A4493420ED2304A1268DA
:1018180030490968A3EB910303FB02F35B00B3FBB8
:10182800F1F3D31A2C4A13601BE02A4A116801EB22
:101838004102A3EB9203264A126803FB02234908DC
:10184800B3FBF1F3244A13600BE0214B1A681E4BDB
:101858001B6803FB02F31F4A1268B3FBF2F31E4A2C
:101868001360194A1368013313601A4A12689342C5
:1018780002D3154B00221A60174B1A68144B1B68C9
:101888009A4201D9144A13607047114B1A680E4BDB
:101898001B6803FB02F30F490968B3FBF1F3D31A82
:1018A8000D4A1360DDE7084B1A680C4B1B689A4217
:1018B80004D2074B1A68084B1A60D2E7064B00227D
:1018C8001A60CEE750000020B01F00205C00002006
:1018D8000C000020AC1F0020C01F0020BC1F0020EF
:1018E800DFF834D0002103E00C4B5B58435004313F
:1018F8000B480C4B42189A42F6D30B4A02E00023DD
:1019080042F8043B094B9A42F9D3FFF707FF00F06E
:1019180011F8FEF733FE704700000220CC190008CA
:1019280000000020240000202400002004200020C3
:10193800FEE7000070B50D4E0D4CA41BA410002549
:10194800A54209D10B4E0C4C00F020F8A41BA410A2
:101958000025A54205D170BD56F8253098470135B8
:10196800EEE756F8253098470135F2E7C419000824
:10197800C4190008C4190008C8190008024403461D
:10198800934200D1704703F8011BF9E7F8B500BF8F
:10199800F8BC08BC9E467047F8B500BFF8BC08BC48
:0419A8009E467047A0
:1019AC000000000000000000010203040607080903
:0819BC004CE8FF7F0100000070
:0419C400BD01000859
:0419C8009901000879
:1019CC0080380100BF8B000000A24A04FF0F00000A
:1019DC0062030000E803000001000000100000009A
:0419EC000024F400DF
:04000005080018E9EE
:00000001FF
